{
  "contractName": "EthBank",
  "abi": [
    {
      "inputs": [],
      "stateMutability": "nonpayable",
      "type": "constructor"
    },
    {
      "inputs": [],
      "name": "bankOwner",
      "outputs": [
        {
          "internalType": "address",
          "name": "",
          "type": "address"
        }
      ],
      "stateMutability": "view",
      "type": "function"
    },
    {
      "inputs": [],
      "name": "deposite",
      "outputs": [
        {
          "internalType": "bool",
          "name": "",
          "type": "bool"
        }
      ],
      "stateMutability": "payable",
      "type": "function"
    },
    {
      "inputs": [
        {
          "internalType": "uint256",
          "name": "_amount",
          "type": "uint256"
        }
      ],
      "name": "withdrawal",
      "outputs": [
        {
          "internalType": "bool",
          "name": "",
          "type": "bool"
        }
      ],
      "stateMutability": "payable",
      "type": "function"
    },
    {
      "inputs": [],
      "name": "getBalance",
      "outputs": [
        {
          "internalType": "uint256",
          "name": "",
          "type": "uint256"
        }
      ],
      "stateMutability": "view",
      "type": "function"
    },
    {
      "inputs": [],
      "name": "getBankBanlance",
      "outputs": [
        {
          "internalType": "uint256",
          "name": "",
          "type": "uint256"
        }
      ],
      "stateMutability": "view",
      "type": "function"
    }
  ],
  "bytecode": "0x608060405234801561001057600080fd5b50336000806101000a81548173ffffffffffffffffffffffffffffffffffffffff021916908373ffffffffffffffffffffffffffffffffffffffff1602179055506107a1806100606000396000f3fe60806040526004361061004a5760003560e01c806312065fe01461004f578063835fc6ca1461007a578063a50ec326146100aa578063c2257d4c146100c8578063e147aaa7146100f3575b600080fd5b34801561005b57600080fd5b5061006461011e565b6040516100719190610406565b60405180910390f35b610094600480360381019061008f9190610452565b610165565b6040516100a1919061049a565b60405180910390f35b6100b261028f565b6040516100bf919061049a565b60405180910390f35b3480156100d457600080fd5b506100dd610332565b6040516100ea9190610406565b60405180910390f35b3480156100ff57600080fd5b506101086103c9565b60405161011591906104f6565b60405180910390f35b6000600160003373ffffffffffffffffffffffffffffffffffffffff1673ffffffffffffffffffffffffffffffffffffffff16815260200190815260200160002054905090565b600081600160003373ffffffffffffffffffffffffffffffffffffffff1673ffffffffffffffffffffffffffffffffffffffff1681526020019081526020016000205410156101e9576040517f08c379a00000000000000000000000000000000000000000000000000000000081526004016101e09061056e565b60405180910390fd5b81600160003373ffffffffffffffffffffffffffffffffffffffff1673ffffffffffffffffffffffffffffffffffffffff168152602001908152602001600020600082825461023891906105bd565b925050819055503373ffffffffffffffffffffffffffffffffffffffff166108fc839081150290604051600060405180830381858888f19350505050158015610285573d6000803e3d6000fd5b5060019050919050565b6000600a3410156102d5576040517f08c379a00000000000000000000000000000000000000000000000000000000081526004016102cc90610663565b60405180910390fd5b34600160003373ffffffffffffffffffffffffffffffffffffffff1673ffffffffffffffffffffffffffffffffffffffff16815260200190815260200160002060008282546103249190610683565b925050819055506001905090565b60008060009054906101000a900473ffffffffffffffffffffffffffffffffffffffff1673ffffffffffffffffffffffffffffffffffffffff163373ffffffffffffffffffffffffffffffffffffffff16146103c3576040517f08c379a00000000000000000000000000000000000000000000000000000000081526004016103ba9061074b565b60405180910390fd5b47905090565b60008054906101000a900473ffffffffffffffffffffffffffffffffffffffff1681565b6000819050919050565b610400816103ed565b82525050565b600060208201905061041b60008301846103f7565b92915050565b600080fd5b61042f816103ed565b811461043a57600080fd5b50565b60008135905061044c81610426565b92915050565b60006020828403121561046857610467610421565b5b60006104768482850161043d565b91505092915050565b60008115159050919050565b6104948161047f565b82525050565b60006020820190506104af600083018461048b565b92915050565b600073ffffffffffffffffffffffffffffffffffffffff82169050919050565b60006104e0826104b5565b9050919050565b6104f0816104d5565b82525050565b600060208201905061050b60008301846104e7565b92915050565b600082825260208201905092915050565b7f796f7520646f6e277420686176652073756666696369656e742066756e647300600082015250565b6000610558601f83610511565b915061056382610522565b602082019050919050565b600060208201905081810360008301526105878161054b565b9050919050565b7f4e487b7100000000000000000000000000000000000000000000000000000000600052601160045260246000fd5b60006105c8826103ed565b91506105d3836103ed565b9250828210156105e6576105e561058e565b5b828203905092915050565b7f746865206465706f736974652076616c75652073686f756c64206e6f74206c6560008201527f7373207468616e20313020576569000000000000000000000000000000000000602082015250565b600061064d602e83610511565b9150610658826105f1565b604082019050919050565b6000602082019050818103600083015261067c81610640565b9050919050565b600061068e826103ed565b9150610699836103ed565b9250827fffffffffffffffffffffffffffffffffffffffffffffffffffffffffffffffff038211156106ce576106cd61058e565b5b828201905092915050565b7f69747320746865206a6f62206f66207468652062616e6b206f776e6572206f6e60008201527f6c79000000000000000000000000000000000000000000000000000000000000602082015250565b6000610735602283610511565b9150610740826106d9565b604082019050919050565b6000602082019050818103600083015261076481610728565b905091905056fea2646970667358221220aeda24b11c7d471e9fb0134e715c9a6c3c9acb2027ce78c23af47fac2189ae3964736f6c634300080a0033",
  "immutableReferences": {},
  "source": "// SPDX-License-Identifier: MIT\r\npragma solidity >=0.4.22 <0.9.0;\r\n\r\ncontract EthBank {\r\n\r\n    address public bankOwner;\r\n    mapping(address =>uint256) private Balance;\r\n\r\n    constructor()  {\r\n        bankOwner=msg.sender;\r\n    }\r\n\r\n    modifier onlyOwner() {\r\n        require(msg.sender == bankOwner , \"its the job of the bank owner only\");\r\n        _;\r\n    }\r\n\r\n    function deposite() public payable returns (bool) {\r\n        require(msg.value >= 10 wei , \"the deposite value should not less than 10 Wei\");\r\n        Balance[msg.sender] += msg.value;\r\n        return true;\r\n    }\r\n\r\n    function withdrawal(uint256 _amount) public payable returns (bool) {\r\n        require ( Balance[msg.sender] >= _amount , \"you don't have sufficient funds\");\r\n        Balance[msg.sender] -= _amount;\r\n        payable(msg.sender).transfer(_amount);\r\n        return true;\r\n        \r\n    }\r\n\r\n    function getBalance () public view returns(uint256) {\r\n        return Balance[msg.sender];\r\n    }\r\n\r\n    function getBankBanlance () public view onlyOwner returns(uint256) {\r\n        return address(this).balance;\r\n    } \r\n\r\n}",
  "sourcePath": "D:\\SolProjects\\ethBank\\eth-Bank\\contracts\\EThBank.sol",
  "compiler": {
    "name": "solc",
    "version": "0.8.10+commit.fc410830.Emscripten.clang"
  },
  "schemaVersion": "3.4.3",
  "updatedAt": "2022-04-07T15:30:57.197Z",
  "devdoc": {
    "kind": "dev",
    "methods": {},
    "version": 1
  },
  "userdoc": {
    "kind": "user",
    "methods": {},
    "version": 1
  }
}